{
  "transactions": [
    {
      "hash": null,
      "transactionType": "CALL",
      "contractName": null,
      "contractAddress": "0x342919a389f2e3b8dd2542425690ffba0c5baed8",
      "function": "updateReputation(address,bytes32,uint256)",
      "arguments": [
        "0x70997970C51812dc3A010C7d01b50e0d17dc79C8",
        "0x650d1a7761df0f62cd9200689441c7caf209c00095c45a1a0f0290bdfc9612f6",
        "500000000000000000000"
      ],
      "transaction": {
        "from": "0xa92291333a35eddaf51546865f0b83fd44af7bdc",
        "to": "0x342919a389f2e3b8dd2542425690ffba0c5baed8",
        "gas": "0x12813",
        "value": "0x0",
        "input": "0xefb203bd00000000000000000000000070997970c51812dc3a010c7d01b50e0d17dc79c8650d1a7761df0f62cd9200689441c7caf209c00095c45a1a0f0290bdfc9612f600000000000000000000000000000000000000000000001b1ae4d6e2ef500000",
        "nonce": "0x1f",
        "chainId": "0x254f8e4b31032"
      },
      "additionalContracts": [],
      "isFixedGasLimit": false
    },
    {
      "hash": null,
      "transactionType": "CALL",
      "contractName": null,
      "contractAddress": "0x342919a389f2e3b8dd2542425690ffba0c5baed8",
      "function": "updateReputation(address,bytes32,uint256)",
      "arguments": [
        "0x70997970C51812dc3A010C7d01b50e0d17dc79C8",
        "0x650d1a7761df0f62cd9200689441c7caf209c00095c45a1a0f0290bdfc9612f6",
        "5000000000000000000000"
      ],
      "transaction": {
        "from": "0xa92291333a35eddaf51546865f0b83fd44af7bdc",
        "to": "0x342919a389f2e3b8dd2542425690ffba0c5baed8",
        "gas": "0x108a0",
        "value": "0x0",
        "input": "0xefb203bd00000000000000000000000070997970c51812dc3a010c7d01b50e0d17dc79c8650d1a7761df0f62cd9200689441c7caf209c00095c45a1a0f0290bdfc9612f600000000000000000000000000000000000000000000010f0cf064dd59200000",
        "nonce": "0x20",
        "chainId": "0x254f8e4b31032"
      },
      "additionalContracts": [],
      "isFixedGasLimit": false
    }
  ],
  "receipts": [],
  "libraries": [],
  "pending": [],
  "returns": {},
  "timestamp": 1776070972965,
  "chain": 656377918984242,
  "commit": "b3dc8a7"
}