{
  "transactions": [
    {
      "hash": "0xdef8cf6028349ecd42b49ece612fc12161b087a2d08b220cb21af58752fa7f1b",
      "transactionType": "CALL",
      "contractName": null,
      "contractAddress": "0x342919a389f2e3b8dd2542425690ffba0c5baed8",
      "function": "updateReputation(address,bytes32,uint256)",
      "arguments": [
        "0x70997970C51812dc3A010C7d01b50e0d17dc79C8",
        "0x650d1a7761df0f62cd9200689441c7caf209c00095c45a1a0f0290bdfc9612f6",
        "500000000000000000000"
      ],
      "transaction": {
        "from": "0xa92291333a35eddaf51546865f0b83fd44af7bdc",
        "to": "0x342919a389f2e3b8dd2542425690ffba0c5baed8",
        "gas": "0x36cb2",
        "value": "0x0",
        "input": "0xefb203bd00000000000000000000000070997970c51812dc3a010c7d01b50e0d17dc79c8650d1a7761df0f62cd9200689441c7caf209c00095c45a1a0f0290bdfc9612f600000000000000000000000000000000000000000000001b1ae4d6e2ef500000",
        "nonce": "0x1b",
        "chainId": "0x254f8e4b31032"
      },
      "additionalContracts": [],
      "isFixedGasLimit": false
    },
    {
      "hash": "0x8c397d1817cca44746d7429f1b6b9205b57e619d7b26492f4d7f9bfe393e4039",
      "transactionType": "CALL",
      "contractName": null,
      "contractAddress": "0x342919a389f2e3b8dd2542425690ffba0c5baed8",
      "function": "updateReputation(address,bytes32,uint256)",
      "arguments": [
        "0x70997970C51812dc3A010C7d01b50e0d17dc79C8",
        "0x650d1a7761df0f62cd9200689441c7caf209c00095c45a1a0f0290bdfc9612f6",
        "5000000000000000000000"
      ],
      "transaction": {
        "from": "0xa92291333a35eddaf51546865f0b83fd44af7bdc",
        "to": "0x342919a389f2e3b8dd2542425690ffba0c5baed8",
        "gas": "0x108a0",
        "value": "0x0",
        "input": "0xefb203bd00000000000000000000000070997970c51812dc3a010c7d01b50e0d17dc79c8650d1a7761df0f62cd9200689441c7caf209c00095c45a1a0f0290bdfc9612f600000000000000000000000000000000000000000000010f0cf064dd59200000",
        "nonce": "0x1c",
        "chainId": "0x254f8e4b31032"
      },
      "additionalContracts": [],
      "isFixedGasLimit": false
    }
  ],
  "receipts": [
    {
      "status": "0x1",
      "cumulativeGasUsed": "0x23fad",
      "logs": [
        {
          "address": "0x042add9e80f7a23ab71d5e1d392af1d3928b7d05",
          "topics": [
            "0xddf252ad1be2c89b69c2b068fc378daa952ba7f163c4a11628f55a4df523b3ef",
            "0x000000000000000000000000a92291333a35eddaf51546865f0b83fd44af7bdc",
            "0x000000000000000000000000f1829676db577682e944fc3493d451b67ff3e29f"
          ],
          "data": "0x0000000000000000000000000000000000000000000000000000000000036cb3",
          "blockHash": "0x10fc3c207e7f792cf39419695a5293a05ccb6a486f520452477d7a395f00371d",
          "blockNumber": "0x864",
          "transactionHash": "0xdef8cf6028349ecd42b49ece612fc12161b087a2d08b220cb21af58752fa7f1b",
          "transactionIndex": "0x1",
          "logIndex": "0x0",
          "removed": false
        },
        {
          "address": "0x342919a389f2e3b8dd2542425690ffba0c5baed8",
          "topics": [
            "0xbc8b76c7f7395fdc9abe1e7a7bc66194d592b009ee333869f0f7e730fc2d868a",
            "0x00000000000000000000000070997970c51812dc3a010c7d01b50e0d17dc79c8",
            "0x650d1a7761df0f62cd9200689441c7caf209c00095c45a1a0f0290bdfc9612f6"
          ],
          "data": "0x000000000000000000000000000000000000000000000000000000000000003900000000000000000000000000000000000000000000001b1ae4d6e2ef500000",
          "blockHash": "0x10fc3c207e7f792cf39419695a5293a05ccb6a486f520452477d7a395f00371d",
          "blockNumber": "0x864",
          "transactionHash": "0xdef8cf6028349ecd42b49ece612fc12161b087a2d08b220cb21af58752fa7f1b",
          "transactionIndex": "0x1",
          "logIndex": "0x1",
          "removed": false
        },
        {
          "address": "0x042add9e80f7a23ab71d5e1d392af1d3928b7d05",
          "topics": [
            "0xddf252ad1be2c89b69c2b068fc378daa952ba7f163c4a11628f55a4df523b3ef",
            "0x000000000000000000000000f1829676db577682e944fc3493d451b67ff3e29f",
            "0x000000000000000000000000a92291333a35eddaf51546865f0b83fd44af7bdc"
          ],
          "data": "0x0000000000000000000000000000000000000000000000000000000000009682",
          "blockHash": "0x10fc3c207e7f792cf39419695a5293a05ccb6a486f520452477d7a395f00371d",
          "blockNumber": "0x864",
          "transactionHash": "0xdef8cf6028349ecd42b49ece612fc12161b087a2d08b220cb21af58752fa7f1b",
          "transactionIndex": "0x1",
          "logIndex": "0x2",
          "removed": false
        }
      ],
      "logsBloom": "0x00000000000000001002000000000000000000000000000000000000000000000000000000000000000000000000000000000000000000000000000000000000000000000000000000000008000000000000000000000004000080000000000000000800000000000000000000000000000100000000000000002010000000000000000000000000000000800000000000000000000000000000020000000000000000000000000000000000000000000000000000000000000000000000000002000002000000000000000000000000000000000000080000200000000000800000000000000000000200000000000001000000a00000020020002000000008",
      "type": "0x2",
      "transactionHash": "0xdef8cf6028349ecd42b49ece612fc12161b087a2d08b220cb21af58752fa7f1b",
      "transactionIndex": "0x1",
      "blockHash": "0x10fc3c207e7f792cf39419695a5293a05ccb6a486f520452477d7a395f00371d",
      "blockNumber": "0x864",
      "gasUsed": "0x23fad",
      "effectiveGasPrice": "0x1",
      "from": "0xa92291333a35eddaf51546865f0b83fd44af7bdc",
      "to": "0x342919a389f2e3b8dd2542425690ffba0c5baed8",
      "contractAddress": null
    }
  ],
  "libraries": [],
  "pending": [],
  "returns": {},
  "timestamp": 1775984410841,
  "chain": 656377918984242,
  "commit": "b3dc8a7"
}