{
  "transactions": [
    {
      "hash": "0x042d171b7857c439a98d5dc4c765b16c225d66b54669c3d28c0b820da25cde4a",
      "transactionType": "CALL",
      "contractName": null,
      "contractAddress": "0x6c76161e9314ed9bb1644847f1290f7edd59aa55",
      "function": "updateReputation(address,bytes32,uint256)",
      "arguments": [
        "0x70997970C51812dc3A010C7d01b50e0d17dc79C8",
        "0x650d1a7761df0f62cd9200689441c7caf209c00095c45a1a0f0290bdfc9612f6",
        "500000000000000000000"
      ],
      "transaction": {
        "from": "0xa92291333a35eddaf51546865f0b83fd44af7bdc",
        "to": "0x6c76161e9314ed9bb1644847f1290f7edd59aa55",
        "gas": "0x36cb2",
        "value": "0x0",
        "input": "0xefb203bd00000000000000000000000070997970c51812dc3a010c7d01b50e0d17dc79c8650d1a7761df0f62cd9200689441c7caf209c00095c45a1a0f0290bdfc9612f600000000000000000000000000000000000000000000001b1ae4d6e2ef500000",
        "nonce": "0x21",
        "chainId": "0x254f8e4b31032"
      },
      "additionalContracts": [],
      "isFixedGasLimit": false
    },
    {
      "hash": "0xeeabed91ababd9617d8be5c5c95259f99cf71ee7205a65911857cf0e24e4a726",
      "transactionType": "CALL",
      "contractName": null,
      "contractAddress": "0x6c76161e9314ed9bb1644847f1290f7edd59aa55",
      "function": "updateReputation(address,bytes32,uint256)",
      "arguments": [
        "0x70997970C51812dc3A010C7d01b50e0d17dc79C8",
        "0x650d1a7761df0f62cd9200689441c7caf209c00095c45a1a0f0290bdfc9612f6",
        "5000000000000000000000"
      ],
      "transaction": {
        "from": "0xa92291333a35eddaf51546865f0b83fd44af7bdc",
        "to": "0x6c76161e9314ed9bb1644847f1290f7edd59aa55",
        "gas": "0x108a0",
        "value": "0x0",
        "input": "0xefb203bd00000000000000000000000070997970c51812dc3a010c7d01b50e0d17dc79c8650d1a7761df0f62cd9200689441c7caf209c00095c45a1a0f0290bdfc9612f600000000000000000000000000000000000000000000010f0cf064dd59200000",
        "nonce": "0x22",
        "chainId": "0x254f8e4b31032"
      },
      "additionalContracts": [],
      "isFixedGasLimit": false
    }
  ],
  "receipts": [
    {
      "status": "0x1",
      "cumulativeGasUsed": "0x24cfc",
      "logs": [
        {
          "address": "0x6c76161e9314ed9bb1644847f1290f7edd59aa55",
          "topics": [
            "0xbc8b76c7f7395fdc9abe1e7a7bc66194d592b009ee333869f0f7e730fc2d868a",
            "0x00000000000000000000000070997970c51812dc3a010c7d01b50e0d17dc79c8",
            "0x650d1a7761df0f62cd9200689441c7caf209c00095c45a1a0f0290bdfc9612f6"
          ],
          "data": "0x000000000000000000000000000000000000000000000000000000000000003900000000000000000000000000000000000000000000001b1ae4d6e2ef500000",
          "blockHash": "0xcf4c1bb584527df7901364841c8752c5cddc4b5e6f6c8d3d096999d07b0409a3",
          "blockNumber": "0x871",
          "transactionHash": "0x042d171b7857c439a98d5dc4c765b16c225d66b54669c3d28c0b820da25cde4a",
          "transactionIndex": "0x1",
          "logIndex": "0x0",
          "removed": false
        }
      ],
      "logsBloom": "0x00000000000000000002000000000000000000000000000000000000000000000000000000000000000000000000000000000000000000000000000000000000000000000000000000400000000000000000000000000004000080000000000000000800000000000000000000000000000000000000000000000000000000000000000000000000000000000000000000000000000000000000000000000000000000000000000000000000000000000000000000000000000000000000000002000000800000000000000000000000004000000000000000000000000000800000000000000000000000000000000001000000200000020000000000000000",
      "type": "0x0",
      "transactionHash": "0x042d171b7857c439a98d5dc4c765b16c225d66b54669c3d28c0b820da25cde4a",
      "transactionIndex": "0x1",
      "blockHash": "0xcf4c1bb584527df7901364841c8752c5cddc4b5e6f6c8d3d096999d07b0409a3",
      "blockNumber": "0x871",
      "gasUsed": "0x24cfc",
      "effectiveGasPrice": "0x0",
      "from": "0xa92291333a35eddaf51546865f0b83fd44af7bdc",
      "to": "0x6c76161e9314ed9bb1644847f1290f7edd59aa55",
      "contractAddress": null
    }
  ],
  "libraries": [],
  "pending": [],
  "returns": {},
  "timestamp": 1776071131546,
  "chain": 656377918984242,
  "commit": "b3dc8a7"
}